:100000000C9402060C945B080C9446060C9446066D
:100010000C9446060C9446060C9446060C94460630
:100020000C9446060C9446060C948D2C0C945F2D73
:100030000C9492220C9446060C9446060C944606A8
:100040000C9446060C9446060C9446060C94460600
:100050000C9446060C94F9220C9446060C94460621
:100060000C9446060C9446060C9446060C944606E0
:100070000C9446060C9446060C9446060C944606D0
:100080000C9446060C9446060C9446060C944606C0
:100090000C9446060C9446060C9446060C944606B0
:1000A0000C9446060C9446060C944606290A2F0A20
:1000B000330A360A3A0A3E0A420A460A4B0A4F0AED
:1000C000530A570A5A0A5E0A620A660A6A0A6F0ADD
:1000D00007190719411941198419A6193C1B3C1B22
:1000E000EC193C1B931A931A0A1B111B3C1B371B60
:1000F000A01AA01AA01AA01AA01AA01AA01AA01A30
:10010000A01AA01AA01AA01AA01AA01AA01AA01A1F
:10011000B21AC21AC91AD01ADA1AD01BD01BE31BA2
:10012000E31BD91BE31BE31BE31BD01BD01BDF1B13
:10013000E31BE31BDF1BC42DEB2DD92EEB2DD92E9A
:10014000332E562ED92EAC2EBB2E07634236B79BCC
:10015000D8A71A39685618AEBAAB558C1D3CB7CC27
:100160005763BD6DEDFD753EF6177231BF0000009F
:10017000803F05A84CCDB2D44EB93836A9020C50F8
:10018000B9918688083CA6AAAA2ABE000000803F32
:100190002E001E001F002000210022002B00140052
:1001A0001A000800150017002900040016000700B7
:1001B00009000A00E1001D001B00060019000500EF
:1001C00000000000DD5CE0002A00E3002D002700B5
:1001D00026002500240023003100130012000C002B
:1001E00018001C00340033000F000E000D000B003F
:1001F000E500380037003600100011000000000054
:10020000DE5CE2002C0028002E001E001F002000F3
:10021000210022002B0014001A00090013000A001C
:10022000290004001500160017000700E1001D005A
:100230001B0006001900050000000000DD5CE00066
:100240002A00E3002D0027002600250024002300BB
:100250002A0033001C0018000F000D0034001200AB
:100260000C00080011000B00E500380037003600D4
:1002700010000E0000000000DE5CE2002C002800F0
:100280002F001E001F002000210022002B00340040
:100290003600370013001C0029000400120008007B
:1002A00018000C00E100330014000D000E001B00CC
:1002B00000000000DD5CE0002A64E300300027005D
:1002C000260025002400230038000F00150006003A
:1002D0000A0009002D001600110017000B0007008E
:1002E000E5001D0019001A001000050000000000C4
:1002F000DE5CE2002C00280044003A003B003C0099
:100300003D003E00350201000100520001000100E5
:1003100039000100500051004F004A00BE5C01004E
:10032000A800AA00A9004D00000000000100010083
:100330004C00C15C450043004200410040003F00CA
:10034000C85CC75CC65CC55CC45CC35C01003002B1
:100350002F022E022D024B0001000100AB00AE0067
:10036000AC004E0000000000010001004900C05C2C
:1003700044003A003B003C003D003E0035000100D7
:10038000010052000100010039000100500051003D
:100390004F004A00BE5C0100A800AA00A9004D0061
:1003A00000000000010001004C0001004500430076
:1003B0004200410040003F00010001000100010037
:1003C00001000100310030002F002E002D004B00F5
:1003D00001000100AB00AE00AC004E0000000000C8
:1003E00001000100490001000000000000000000C1
:1003F00000000000000000000000000000000000FD
:1004000000000000000000000000000000000000EC
:1004100000000000000000000000000000000000DC
:1004200000000000000000000000000000000000CC
:1009100044003A003B003C003D003E000100005C0A
:1009200001000100010001000100010001000100BF
:1009300001000100010001000100010001000100AF
:10094000000000000100010001000100450043001B
:100950004200410040003F00010001000100010091
:100960000100010001000100DC5CDB5CDA5C0100DD
:100970000100010001000100010001000000000071
:1009800001000100010001006801F000B4007800DE
:100990005A007F3F1F643214643214783C1E1E14C8
:1009A0000A0500000000000101010101010101012F
:1009B0000202020202020202020303030303030310
:1009C00003040404040404050505050506060606DB
:1009D0000607070707080808080909090A0A0A0A92
:1009E0000B0B0B0C0C0C0D0D0D0E0E0F0F0F101032
:1009F00011111112121313141415151616171718B6
:100A00001819191A1A1B1C1C1D1D1E1F1F2020211E
:100A100022222324252526272728292A2B2B2C2D63
:100A20002E2F2F30313233343536363738393A3B82
:100A30003C3D3E3F4041424344464748494A4B4C77
:100A40004D4F50515253555657585A5B5C5E5F603C
:100A50006263646667696A6C6D6E707173747678D0
:100A6000797B7C7E8081838486888A8B8D8F91922E
:100A70009496989A9B9D9FA1A3A5A7A9ABADAFB152
:100A8000B3B5B7B9BBBDBFC1C4C6C8CACCCFD1D33B
:100A9000D6D8DADCDFE1E4E6E8EBEDF0F2F5F7FAE0
:100AA000FCFF0403300000001C03490072006900D1
:100AB000730020004B006500790062006F00610048
:100AC0007200640000000E034B00650065006200C8
:100AD00069006F00000004030904090254000301C7
:100AE00000A0FA090400000103010100092111011D
:100AF00000012240000705810308000A09040100E3
:100B00000103010200092111010001224D00070526
:100B1000820308000A090402000103000000092101
:100B2000110100012236000705830308000A1201A3
:100B3000100100000008EBCE561200020102030172
:100B400005010980A10185021601002603001A8112
:100B5000002A8300751095018100C0050C0901A1D0
:100B6000018503160100269C021A01002A9C0275C9
:100B70001095018100C005010902A1010901A10030
:100B80000509190129051500250195057501810241
:100B90009501750381010501093009311581257F12
:100BA00095027508810609381581257F950175081C
:100BB0008106050C0A38021581257F95017508818B
:100BC00006C0C005010906A101050719E029E715BE
:100BD00000250195087501810295017508810105BF
:100BE0000819012905950575019102950175039173
:100BF000010507190029FF150026FF009506750855
:100C00008100C00011241FBECFEFDAE0DEBFCDBFF0
:100C100004B603FE24C08091400290914102A0914D
:100C20004202B09143028730904BA740B04BB9F4D9
:100C3000109240021092410210924202109243021E
:100C400014BE84B7877F84BF88E10FB6F894809381
:100C50006000109260000FBEE0E0F8E3099511E03B
:100C6000A0E0B1E0E2ECF5E602C005900D92A03400
:100C7000B107D9F712E0A0E4B1E001C01D92A034A1
:100C8000B107E1F70E94B7290C94DF320C94000001
:100C900008950C9448068091E901836088608093F0
:100CA000E901ACE1B1E021E030E08D91E82FE2957F
:100CB000EF70F0E041A18F70B90102C0660F771F9D
:100CC0008A95E2F7CB01962F9095492341A392A1F3
:100CD000982B92A371E0A132B70739F7A6E1B1E0F2
:100CE00021E030E08D91E82FE295EF70F0E041A136
:100CF0008F70B90102C0660F771F8A95E2F7CB01AA
:100D0000962F9095492341A392A1982B92A371E02D
:100D1000AC31B70739F7559A209AE0E4F1E0ABE43B
:100D2000B1E011921D9281E0EA34F807D1F70C94FA
:100D30002E0D2F923F925F926F927F928F929F9291
:100D4000AF92BF92CF92DF92EF92FF920F931F93D9
:100D5000CF93DF9380910001882319F000E010E029
:100D600002C005E010E09CE1E92E91E0F92EA80117
:100D7000455B5E4F6A01EA01AA24A394B12C772453
:100D800073944E0168801882D7012D917D01E22F66
:100D9000E295EF70F0E081A12F70A50102C0440F31
:100DA000551F2A95E2F79A01842B81A382A1542E24
:100DB0005094852182A350EA5A95F1F786E1282EB6
:100DC00081E0382E80E090E0D1015D911D01652F1A
:100DD00062956F7070E0DB0190966C9178815F7026
:100DE000D50102C0AA0FBB1F5A95E2F76A2339F456
:100DF0004A2D082E01C0440F0A94EAF701C040E0D2
:100E0000472B4883019686309105F1F681A1852113
:100E100081A382A1822B82A32196F401808168168E
:100E200041F0709255010E94C42290935701809323
:100E30005601F1E2EF16F1E0FF0609F0A2CF809132
:100E400055018823D1F080915601909157010E945D
:100E5000D022069790F080E090E0005C1E4FF801F1
:100E6000E80FF91FD601A80FB91F2C912083019616
:100E700085309105A1F71092550181E0DF91CF9166
:100E80001F910F91FF90EF90DF90CF90BF90AF90A8
:100E90009F908F907F906F905F903F902F900895DC
:100EA000CF93DF9380910001882319F0C5E0D0E053
:100EB00002C0C0E0D0E00E94CD080097D9F420E045
:100EC00030E0C05CDE4FF901E65AFE4F4081FE0182
:100ED000E20FF31F40832F5F3F4F2530310599F715
:100EE0002091320220FF02C0269501C020E020930D
:100EF000590102C081E090E0DF91CF910895CF9336
:100F00000E949906C82F0E945007892BF9F05D981E
:100F100090914A019F5F90934A019630D0F0809162
:100F20000001882319F045E050E002C040E050E0A5
:100F300020E030E0405C5E4FFA01E20FF31F1082C8
:100F40002F5F3F4F25303105B9F703C05D9A1092EE
:100F50004A010E94C20C8C2FCF9108950E949906DD
:100F600080910001882319F020E030E002C025E0E4
:100F700030E080E090E0205C3E4FF901E80FF91F7F
:100F80004081FC01E65AFE4F408301968530910571
:100F9000A1F7809159010C94C40CE82FF0E0E05CBB
:100FA000FE4F808108950895E8EDF0E08081806132
:100FB00080838AE18A95F1F700C08091D900817021
:100FC00008958EE090E00E94973291E0811101C077
:100FD00090E0909300010E94D407882319F00E94AA
:100FE0004E0804C00E94BB220E94520878940895C3
:100FF0000E944B060E94AE07FDCF0E94E1070E94AF
:10100000D407811102C00E94F8070895509A0895EC
:101010005098589A0895589A08951F93CF93DF9344
:10102000C82F0E94060818E0D0E0115088F0CE01C9
:10103000012E02C0959587950A94E2F780FF03C0C0
:101040000E940B0801C0589880E88A95F1F7EDCF0F
:10105000DF91CF911F9108950E940808489BFECF11
:1010600080E88A95F1F708950E94080898E080E0EA
:1010700029B12170880F822B20E82A95F1F725E00D
:101080002A95F1F70000915099F708950E940608FB
:10109000589880E88A95F1F70C940B080E9406088E
:1010A0000C940B080E940808E89AE9E6F0E08081B9
:1010B0008C7F808308951F920F920FB60F92112498
:1010C000CF92DF92FF920F931F932F933F934F93F3
:1010D0005F936F937F938F939F93AF93BF93EF93A0
:1010E000FF93CF93DF931F92CDB7DEB70E944608E0
:1010F000C12CD12CF12C8601065A1E4FF80180819B
:101100000E940D080E944608F8018081F80EFFEF4A
:10111000CF1ADF0A85E0C816D10469F78F2D0E9427
:101120000D080E944608E0E8EA95F1F7F0E4FA9528
:10113000F1F70E943408809359010E9446081091EB
:1011400059010E94340889830E9446080E940808B9
:101150008981181721F080915801816003C0809126
:1011600058018E7F809358010F90DF91CF91FF91AE
:10117000EF91BF91AF919F918F917F916F915F910F
:101180004F913F912F911F910F91FF90DF90CF9042
:101190000F900FBE0F901F901895CF92DF92FF9285
:1011A0000F931F93CF93DF931F92CDB7DEB7F894C1
:1011B0000E940608589885E08A95F1F700000E9481
:1011C00008080E940B08E0E8EA95F1F7489934C056
:1011D0000E942C08C12CD12CF12C0E9434088601CD
:1011E000065A1E4FF80180830E942C08F801808166
:1011F000F80EFFEFCF1ADF0A85E0C816D10469F7B1
:101200000E94340889830E942C088981F81214C036
:10121000809159010E940D080E942C08809159016B
:101220000E940D080E942C080E9406080E940B08CC
:10123000789480E090E003C0789481E090E00F9093
:10124000DF91CF911F910F91FF90DF90CF90089584
:101250000C943609CF93DF93EC010E94E421BE0188
:1012600080E090E0DF91CF910C94D51F55985D9868
:10127000209828980895CF93FB018C3D2CE5920788
:1012800001F140F48A3D2CE5920769F08B3D9C45C5
:1012900081F03FC08E3D2CE59207E1F0C0F08F3D1C
:1012A0009C4561F136C0C281CC23A1F181E090E080
:1012B00005C0C281CC2371F182E090E00E942A092E
:1012C00023C0C281CC2331F184E090E0F7CFC2810A
:1012D00083E002C0C28184E0CC2341F00E94302030
:1012E00040E164E083E00E94B00C0EC00E944B20FD
:1012F00040E164E083E00E94B00C0CC0C28180E158
:10130000CC2321F00E943020C0E004C00E944B207A
:1013100001C0C1E08C2FCF91089581E008950C9415
:101320003B090E94BE1B2FEF84E39CE021508040CC
:101330009040E1F700C0000087E797E7909301082D
:10134000809300080C941F230F931F93CF93DF9378
:101350008C01FC01C081D181CE010E94BC20BE0164
:101360000E943B0DEC01B8010E948F09882309F40B
:1013700091C2B801CE010E94D10F882309F48AC21C
:10138000C93CFCE5DF0741F4F8018281882309F4B8
:1013900081C20E94C0107EC2CA3C8CE5D80708F00A
:1013A00036C1C13C9CE5D90761F4F80182818823EC
:1013B00009F470C20E946F218272F1F00E94ED1256
:1013C00069C2C23CECE5DE07D0F0F8018281C53C81
:1013D000FCE5DF0709F4F0C008F000C1C33CECE510
:1013E000DE0709F4EFC008F0F3C0882309F452C205
:1013F0000E946F21827211F30E94E3124BC2C53129
:10140000FCE5DF0708F0A3C0C2308CE5D80708F47C
:1014100078C0F8018281882309F47FC00E94D1211D
:10142000811102C00E94AB210E94E92190E09093BB
:10143000310280933002FE01E350FC45E231F105B8
:1014400020F4EA5AFF4F0C9486328091300281607A
:1014500003C0809130028260809330024BC0809143
:1014600030028460F9CF8091300213C08091300245
:101470008061F2CF809130028062EECF80913002A5
:101480008064EACF809130028068E6CF809130029C
:1014900084608860E1CF809130028E7FDDCF8091C3
:1014A00030028D7FD9CF809130028B7FD5CF809154
:1014B000300213C0809130028F7ECECF80913002F7
:1014C0008F7DCACF809130028F7BC6CF8091300252
:1014D0008F77C2CF809130028B7F877FBDCF909175
:1014E000300297FB882780F921E0822780FB97F95B
:1014F00090933002809130020E94ED210E94BE1B29
:10150000C9C1C1159CE5D90779F0C130DC45A1F00E
:1015100081E08093640180936501C801DF91CF91E0
:101520001F910F910C948D09F8018281882309F491
:10153000B1C10E949109AEC1F8018281882309F4EA
:10154000A9C18091E90181608093E901A3C1C531FE
:10155000FCE5DF0729F50E946F21382FF801228171
:101560008091030190910401222371F03A7A21E0E5
:1015700009F420E020935F01222311F065E301C00C
:1015800069E20E94372209C020915F01222311F0F5
:1015900065E301C069E20E9439220E943C217AC1C0
:1015A000C03CDC4509F0B4CFF8018281882309F4FE
:1015B00071C10E944E136EC1882309F46BC10E9451
:1015C000281268C1882309F465C10E94F01162C124
:1015D000882309F45FC10E9409125CC1C73C9CE5E5
:1015E000D90731F4882309F455C10E945D1252C114
:1015F000C83CDC4530F4882309F44CC10E944312F6
:1016000049C1882309F446C10E94781243C1C03DF4
:10161000FCE5DF07C1F4F8018281882309F43AC1AF
:101620000E94B210653171058105910540F00E945C
:10163000B210673171058105910508F4DDCE85E1B1
:101640000E94E01227C1C13D8CE5D80708F07AC09E
:10165000CC3C9CE5D907B1F4F8018281882309F4D8
:1016600019C10E94B210623071058105910540F0E8
:101670000E94B210653071058105910508F4BCCE59
:1016800082E0DECFCD3CECE5DE07B8F4CA3CFCE5F9
:10169000DF0741F4F8018281882309F4FBC00E942E
:1016A000D510F8C0CB3CDC4509F032CFF80182817F
:1016B000882309F4EFC081E0C3CFF8018281CE3CDA
:1016C000FCE5DF07A1F4882309F4E4C00E94B2100E
:1016D000693071058105910540F00E94B2106E30AD
:1016E00071058105910508F487CE89E0A9CFCF3C2B
:1016F000DC45A0F4882309F4CDC00E94B210663006
:1017000071058105910540F00E94B21068307105A5
:101710008105910508F470CE86E092CF882309F404
:10172000B9C00E94B2106F3071058105910540F07B
:101730000E94B210643171058105910508F45CCEF8
:101740008FE07ECFC43DECE5DE0739F5F8018281FC
:10175000882361F0109265010E94C4229093630176
:101760008093620180E20E94B71894C08091650165
:1017700081110FC080916201909163010E94D0227B
:10178000883C910530F487E20E94471787E20E9467
:10179000561880E20E94BE187DC0C53DFCE5DF07FB
:1017A00008F043C0F8018281C23DFCE5DF07A1F4E7
:1017B000882309F46FC00E94B21069317105810558
:1017C000910540F00E94B2106232710581059105C9
:1017D00008F412CE89E134CFC33DDC4528F48823D8
:1017E00009F458C088E12CCF882351F0109264018D
:1017F0000E94C422909361018093600182E0B3CF84
:101800008091640181110FC080916001909161010C
:101810000E94D022883C910530F486E20E9447174E
:1018200086E20E94561882E0B5CFC83DECE5DE079F
:1018300031F4F8018281882369F180E009C0C93D53
:10184000FCE5DF0741F4F8018281882319F182E089
:101850000E94532A1FC0C53DDC4509F059CEF8014E
:101860008281811177CF80916501811192CF809122
:101870006201909163010E94D022883C910508F09A
:1018800088CF80E20E94BE1888E20E94471788E253
:101890000E94561880E0DF91CF911F910F9108951B
:1018A0004F925F926F927F928F929F92AF92BF9270
:1018B000CF92DF92EF92FF920F931F932B013C0187
:1018C000C12CD12C7601C394D701C60104C0880F66
:1018D000991FAA1FBB1F4A95D2F7AC01BD01460153
:1018E000570104C0880C991CAA1CBB1C2A95D2F76E
:1018F000482959296A297B29D701C60104C0880FC4
:10190000991FAA1FBB1F0A95D2F76A017B01C42049
:10191000D520E620F720C416D506E606F70639F4EA
:10192000BC01CD0164297529862997290AC0BC010B
:10193000CD016095709580959095642175218621E3
:1019400097211F910F91FF90EF90DF90CF90BF9064
:10195000AF909F908F907F906F905F904F90089581
:101960000F93382F262F6091D4017091D50180916B
:10197000D6019091D701042F432F0E94500C0F9154
:101980000C9410200C944906CF92DF92EF92FF92B4
:10199000863030F4811105C0909180009F7704C09B
:1019A00085E090918000906890938000282F30E02F
:1019B000AFEFBFEF0E941D3225E030E040E050E085
:1019C0000E946432C9012C3764E1360728F469E0CB
:1019D00070E00E943C3229C0DA01C9018A50974D5B
:1019E000AF4FBF4F6627782F892F9A2F25EF38E208
:1019F00041E050E00E94643269017A01CA01B901F4
:101A00000E942C329B01AC01C701B6010E942C320E
:101A1000BB27A92F982F872F009721E0A207B10598
:101A200011F0BC0102C06FEF7FEF709389006093EB
:101A30008800FF90EF90DF90CF900895259A2D9821
:101A400082E88093800089E1809381008FEF9FEF8F
:101A500090938700809386000C9463270E941E0D4C
:101A60000C94280908950C94320D0C94330D80E0E9
:101A700090E00895089596E0799FF00111249CE389
:101A8000899FE00DF11D1124E60FF11DEE0FFF1FE0
:101A9000E057FE4F859194910895880F991F8857BC
:101AA000964FFC01859194910895CF93DF930E9406
:101AB0003B0D0E94310FEC01811521E5920708F0E2
:101AC00043C0811530E5930708F021C1883E910598
:101AD00008F5803E910508F0C0C1883A910578F478
:101AE000853A910508F09EC08130910509F4B5C191
:101AF00008F46CC18430910508F0AFC167C18D3B1B
:101B0000910508F49AC0803C910508F45FC1805C9F
:101B10009109ECC0C11580E3D80780F4C11520E21B
:101B2000D20708F0E1C0C03FD10508F44FC1CF3F54
:101B3000D10511F008F091C1D0658FC1C11530E415
:101B4000D30708F0E1C0D6C0C11589E5D80740F534
:101B5000C11528E5D20708F025C1C11534E5D30722
:101B600078F4C11583E5D80708F002C1C11522E554
:101B7000D20708F0E8C0DC2FCC27C16FD06A6DC156
:101B8000C11535E5D30708F408C1C11586E5D807A6
:101B900008F01CC1CF71DD27DC2FCC27D0625DC1DE
:101BA000CB3B2CE5D20709F408C1D8F4C93B8CE53E
:101BB000D80709F4FCC008F0FDC0C1153AE5D30709
:101BC00008F004C18C2F8F70806E90E0906A34E032
:101BD000D695C7953A95E1F7CF709C013C2BE9016A
:101BE0003CC1CE3B8CE5D80709F4EDC060F4CC3B9A
:101BF0003CE5D30709F4E4C0CD3BDC4509F0E6C081
:101C0000C0E0D2ED2AC1CE0190568115904208F075
:101C1000DDC08D2F8F710E94AD0FDD27D0628F71D7
:101C2000D82B1BC1853A910509F4D3C0863A91059A
:101C300009F4D2C0C3E8D0E410C1883A910509F490
:101C4000CEC0893A910509F4CDC08A3A910509F4CC
:101C5000CCC08B3A910509F4CBC08C3A910509F4BC
:101C6000CAC08B3B910509F4C9C08C3B910509F4AE
:101C7000C8C08D3A910509F4C7C0803B910509F4AD
:101C8000C6C08E3A910509F4C5C08F3A910509F492
:101C9000C4C0813B910509F4C3C0823B910509F49E
:101CA000C2C0833B910509F4C1C0843B910509F48E
:101CB000C0C0853B910509F4BFC0863B910509F47E
:101CC000BEC0873B910509F4BDC0883B910509F46E
:101CD000BCC0893B910509F4BBC08A3B910509F062
:101CE000BAC0CAE2D6E4B9C0CE019F700E944D0DC1
:101CF000EC01B3C0CE019927D3FF03C0EC01D86C2F
:101D0000ACC0EC01D06CA9C0DF70D06AA6C0282F8F
:101D1000237081E090E002C0880F991F2A95E2F7B6
:101D20009C689E01E4E036952795EA95E1F72370DB
:101D3000922BCF70C695C69530E2C39FE001112467
:101D4000C82BD92B8AC08C2F8695869520E2829F3E
:101D5000C00111249E0123703327C1E0D0E002C0EE
:101D6000CC0FDD1F2A95E2F7C82BD92BDC6875C094
:101D70008C2F8695869530E2839FC00111249E01A9
:101D800023703327C1E0D0E002C0CC0FDD1F2A95BD
:101D9000E2F7C82BD92BDA6860C0DC2FCC27C46FE0
:101DA000D06A5BC0DC2FCC27C06FD06A56C0C0E0C1
:101DB000D4ED53C0C0E0D5ED50C0C0E0D1ED4DC072
:101DC000C0E0D0ED4AC0C0E0D3ED47C0C0E0D0E0F5
:101DD00044C0C1E8D0E441C0C2E8D0E43EC0C2EE95
:101DE000D4E43BC0C9EED4E438C0CAEED4E435C074
:101DF000C5EBD4E432C0C6EBD4E42FC0C3EBD4E4CB
:101E00002CC0C4EBD4E429C0C7EBD4E426C0CCEC8E
:101E1000D4E423C0CDECD4E420C0C3E8D5E41DC095
:101E2000CAE8D5E41AC0C2E9D5E417C0C4E9D5E4CC
:101E300014C0C1E2D6E411C0C3E2D6E40EC0C4E2CD
:101E4000D6E40BC0C5E2D6E408C0C6E2D6E405C0BD
:101E5000C7E2D6E402C0C0E0D4E4CE01DF91CF9166
:101E600008958238910549F1B0F48133910509F460
:101E700059C048F48932910509F44FC08A3291055E
:101E800009F455C008958533910509F441C089339B
:101E9000910599F00895833E910531F138F4803E23
:101EA000910591F0823E9105A9F00895863E910535
:101EB00001F1873E910539F108952091300220FD0E
:101EC0003BC021FD39C008958091300280FF34C0AD
:101ED00089E341C08091300282FF32C0809130029C
:101EE00084FF2CC080E037C08091300282FD28C082
:101EF000F5CF8091300283FF25C08091300284FDB0
:101F0000F1CF87EE28C08091300283FD1BC0F5CF52
:101F10008091300285FF18C019C08091300285FF82
:101F200015C012C08091300286FF12C013C080918C
:101F3000300286FF0FC00CC080EE0DC083EE0BC0D8
:101F400082EE09C086EE07C085E305C089E203C0C2
:101F500081E301C08AE290E008959091300292FFFF
:101F60000DC0282F2871283019F4877F846006C09F
:101F7000282F2471243011F48B7F886093FF0DC0CB
:101F8000282F2871283119F4877E846106C0282FF4
:101F90002471243111F48B7E886194FD877E08952D
:101FA0000895CF93DF93EC01FB018281811102C080
:101FB00081E040C080917301811125C0C631DC45AC
:101FC000B9F70E94D00F81E0809373010E94C42270
:101FD00090937201809371011092660110926801D2
:101FE0001092670110926A011092690110926C01BF
:101FF00010926B0110926E0110926D01109270019F
:1020000010926F0116C080917101909172010E942F
:10201000D0228C32914060F680916601E82FF0E08A
:10202000EE0FFF1FE959FE4FD183C0838F5F80936E
:10203000660180E0DF91CF910895DF92EF92FF92E9
:102040000F931F93CF93DF93662309F44AC0E42FC5
:10205000F0E0AFEFB0E0A61BB109BF01A69FE00121
:10206000A79FD00DB69FD00D1124FD2FDD2E7B0133
:10207000ED1AF1080CE310E0B8010E943C32EB01CC
:10208000BC01E69EC001E79E900DF69E900D1124C6
:10209000B8010E943C32C230D105B1F040F4209723
:1020A00079F0219709F58F2FD42E461B20C0C4301C
:1020B000D10599F068F02597B9F4842F861B17C0D5
:1020C0008F2FD62EDF0E13C0862F8F0FD42E03C076
:1020D000D42ED61A842F4F2F0AC0842F462F4F0F8D
:1020E00006C0842FD42E03C080E0D12C40E0E42F22
:1020F000F0E0EE55F64F4491ED2DF0E0EE55F64F41
:102100009491E82FF0E0EE55F64FE491D901119645
:102110004C9311979C931296EC93DF91CF911F9162
:102120000F91FF90EF90DF90089588E090E00C947D
:102130009F32AB01BC0188E090E00C94BD32E1E03D
:10214000F2E083E08083109202028FEF809303021B
:1021500080930402109205026081718182819381D3
:102160000C9499106091010260FF06C066956F7330
:1021700070E080E090E0089560E070E0CB010895A9
:102180008091050290E001968430910514F083E07F
:1021900090E08093050260910102709102028091AB
:1021A0000302909104020C9499108091050290E032
:1021B000019797FF02C080E090E08430910514F011
:1021C00083E090E080930502609101027091020229
:1021D00080910302909104020C9499108091010265
:1021E00080FF06C06CE070E086E092E00C94071679
:1021F000E8E0F2E0DF0111971C92DF0112971C92D8
:102200001082339682E0EC32F807A1F7EBCF909181
:10221000010290FF10C0E8E0F2E0DF0111978C931B
:10222000DF0112976C934083339692E0EC32F9070A
:10223000A1F70C94EE100895CF93DF9300D01F9276
:10224000CDB7DEB72091010220FF0AC09E012F5FAB
:102250003F4F0E941D104B8169818A810E940711A6
:102260000F900F900F90DF91CF9108955F926F9232
:102270007F928F929F92AF92BF92CF92DF92EF9216
:10228000FF920F931F93CF93DF9300D01F92CDB790
:10229000DEB78C01662E742E522E8091010280FFD3
:1022A00089C0982F9E77923061F49E012F5F3F4F37
:1022B000C8010E941D104B8169818A810E9407110B
:1022C00059C0E82FE695EF739EE39E0F9F739430FD
:1022D00018F4709004024EC09AE39E0F9F739930D9
:1022E00068F4881F8827881F90910202292F220FE7
:1022F000022F082B97FB112710F93CC087E28E0FA5
:102300008F738A30B8F5F0E07997E0FF02C02FEFC5
:1023100001C021E0EE7FE857F64F859194916CE083
:1023200070E00E943C3226035001279FB00C11241C
:10233000680188E9C81A8EEFD80A86E0E82E82E0A4
:10234000F82E98E6892E99249394C601B4010E9430
:102350003C329701472D662D0E941D10CA0CDB1CD4
:1023600083E0E80EF11C8AE2E81682E0F80669F7DD
:102370000E94EE108091010200FB87F98093010218
:10238000902F9695809102028078892B10FB87F917
:10239000809302026092030270920402552051F071
:1023A00060910102709102028091030290910402F7
:1023B0000E9499100F900F900F90DF91CF911F9175
:1023C0000F91FF90EF90DF90CF90BF90AF909F90D4
:1023D0008F907F906F905F90089521E00C9436115C
:1023E00020910102221F2227221F30910202432F37
:1023F000440F842F822B37FB992790F9089668E6C3
:1024000071E00E94503240910402609103020C94EA
:10241000ED1120910102221F2227221F309102027A
:10242000432F440F842F822B37FB992790F9883054
:1024300091051CF4805A9E4F01C0089768E671E030
:102440000E94503240910402609103020C94ED11FD
:1024500060910302862F90E0883F910514F4685F35
:1024600001C06FEF80910102881F8827881F90911B
:102470000202292F220F97FB992790F9409104021D
:10248000822B0C94ED1160910302862F90E0089747
:1024900014F0685001C060E080910102881F882715
:1024A000881F90910202292F220F97FB992790F9FC
:1024B00040910402822B0C94ED1140910402842F70
:1024C00090E0883F910514F4485F01C04FEF809180
:1024D0000102881F8827881F90910202292F220F4E
:1024E00097FB992790F960910302822B0C94ED11D0
:1024F00040910402842F90E0089714F0485001C0E6
:1025000040E080910102881F8827881F9091020275
:10251000292F220F97FB992790F960910302822BB4
:102520000C94ED1120E00C9436119091010290FF73
:1025300046C09178811102C0926003C0833220F0BE
:1025400094649093010205C08F73880F892B809348
:102550000102662351F060910102709102028091A4
:102560000302909104020E94991080910102982F19
:102570009E77923019F41092890110C0982F969589
:102580009F732EE3290F2F73273120F491E090934E
:10259000890104C0995D9F739A3068F3881F88276A
:1025A000881F90910202292F220F97FB992790F9FB
:1025B0004091040260910302822B0C9492120895C0
:1025C00061E00C9495128091010286958F738F5F64
:1025D000833208F081E00C94E0128091010286952C
:1025E0008F73815009F482E20C94E012E1E0F2E092
:1025F00080818160808386958F730C94E01260E007
:102600000C9495128091E90181608093E90181E049
:1026100080938A010E94D121811104C00E94AB21C4
:102620000E949F100E949510609301027093020215
:1026300080930302909304026E7761F40E949F10CE
:102640000E9495106093010270930202809303022E
:102650009093040281E0809389018091010280FFC0
:1026600004C086958F730C94FF120895E1E0F2E0A8
:1026700080818E7F808360817181828193810E94BD
:102680009910109289012FEF80E792E0215080404D
:102690009040E1F700C000000C94EE108091010220
:1026A00080FD0C9436130C94F612CF93C82F8091B2
:1026B0008701909188010E94D022EC2FF0E0E25631
:1026C000F64FE491F0E08E179F0708F442C00E9495
:1026D000C42290938801809387016091860170E005
:1026E00080E090E00E943B3020E030E04FE753E490
:1026F0000E94742F2BED3FE049E450E40E945C31CE
:102700000E94BF310E94E12F2BE43AE34EE25FE3E7
:102710000E940F2F20EF3BEF48ED52E40E945C3106
:102720000E940D30462F80910102881F8827881F44
:1027300090910202292F220F97FB992790F960911F
:102740000302822B0E941C11809186018F5F80936F
:102750008601CF910895CF93C82F809184019091E5
:1027600085010E94D022EC2FF0E0E556F64FE4916F
:10277000F0E08E179F07E8F00E94C4229093850135
:102780008093840140910402609103028091820150
:10279000909183010E941C1180918201909183018C
:1027A000019668E671E00E943C3290938301809329
:1027B0008201CF910895DF92EF92FF920F931F93C2
:1027C000CF93DF93D82E80918001909181010E9458
:1027D000D022ED2DE695F0E0E856F64FE491F0E0DA
:1027E0008E179F07E8F10E94C42290938101809385
:1027F000800106E012E0C0E0D0E068E6E62EFF24AB
:10280000F39480917E0190917F018C0F9D1FB70101
:102810000E943C32980140910402609103020E94A0
:102820001D106E960D5F1F4FC83681E0D80749F71F
:102830000E94EE1020917E0130917F01D0FE0AC0EF
:10284000C9010196BE010E943C3290937F018093A2
:102850007E0106C02150310930937F0120937E0113
:10286000DF91CF911F910F91FF90EF90DF9008952E
:10287000AF92BF92CF92DF92EF92FF920F931F938E
:10288000CF93DF93C82F80FD03C0BB24B39402C055
:10289000BB24BA9480917C0190917D010E94D0224A
:1028A000C695EC2FF0E0EB56F64FE491F0E08E1772
:1028B0009F0708F466C00E94C42290937D01809314
:1028C0007C01F6E0EF2EF2E0FF2E08E012E0C0E01F
:1028D000D0E0F80131971082F7011082F8011082E0
:1028E000E4E0CE2ED12CA12C80917B018A0D87FDB6
:1028F000845F992787FD9095C817D907E9F48091DF
:1029000004028C9DA0018D9D500D11245595479575
:102910005595479580910102881F8827881F9091BF
:102920000202592F550F97FB992790F99701609153
:102930000302852B0E941D10AB0CF1E0CF1AD108C9
:10294000C114D10489F6219683E0E80EF11C0D5FD5
:102950001F4FCC30D10509F0BCCF0E94EE10809102
:102960007B0191E0B91206C0811102C08BE007C063
:10297000815005C090E00196BE010E9450328093C4
:102980007B01DF91CF911F910F91FF90EF90DF902E
:10299000CF90BF90AF9008950F931F93CF93DF9385
:1029A000C82F8091790190917A010E94D022EC2F5A
:1029B000F0E0EE56F64FE491F0E08E179F0708F432
:1029C00068C00E94C42290937A0180937901E8E064
:1029D000F2E0DF0111971C92DF0112971C92108226
:1029E000339682E0EC32F807A1F7C0E0D0E00CE0CB
:1029F00010E0CE01B8010E945032209178013327B7
:102A000027FD3095FC01EE0FFF1FC217D3070CF115
:102A100020910201332727FD30952C173D07CCF07C
:102A20009F01280F391F2A5F3D4F80910102881FA7
:102A30008827881F90910202592F550F97FB9927DD
:102A400090F94091040260910302852B0E941D10B1
:102A500007C0E80FF91FEA5FFD4F11821082128252
:102A60002196CC30D10529F60E94EE10209101016B
:102A700080917801820F8093780190910201920FEA
:102A800090930201191614F48B301CF021952093B9
:102A90000101DF91CF911F910F910895EF92FF9265
:102AA0000F931F93CF93DF938091760190917701DD
:102AB0000E94D022883E9340C8F10E94C422909385
:102AC000770180937601C0917401D09175012196B0
:102AD000C170DD27D0937501C093740106E012E048
:102AE000F12CB8E7EB2E8F2D8695FE01E80FF11D36
:102AF000CF018170992798014091040260910302EF
:102B0000FC01EE9EC001EF9E900D11240E941D104D
:102B1000F3940D5F1F4FFCE0FF12E5CFDF91CF91E3
:102B20001F910F91FF90EF900C94EE10DF91CF91D9
:102B30001F910F91FF90EF90089580918901882354
:102B400091F120910102822F86958F739EE3980F59
:102B50009F73943018F482500C9455139AE3980F95
:102B60009F73933018F486500C94AB1397E3980F2F
:102B70009F73963018F489500C94DB1391E3980FEF
:102B80009F73963018F48F500C9438149BE2980F72
:102B90009F73933018F485510C94CC142E77203306
:102BA00011F40C944E1508953BB1242F2095232346
:102BB0003BB1342B4FB7F894FC01680F791FE6172F
:102BC000F70789F0819198E03BB9000000C087FFCA
:102BD0002BB9880F000000C000C000C02BB900C096
:102BE0009A9591F7ECCF4FBF08952AB1242B2AB9BB
:102BF0009B01220F331F260F371FB9010E94D415E6
:102C000087EC90E00197F1F700C00000089548E0DC
:102C10000C94F5159093900180938F010895E091A5
:102C20008F01F0919001309721F00190F081E02D1B
:102C3000099480E00895E0918F01F0919001309720
:102C400021F00280F381E02D09940895E0918F0135
:102C5000F0919001309721F00480F581E02D0994E6
:102C6000089520918D0130918E018217930771F0A4
:102C700090938E0180938D01E0918F01F0919001EE
:102C8000309721F00680F781E02D09940895209176
:102C90008B0130918C018217930771F090938C0116
:102CA00080938B01E0918F01F0919001309721F09A
:102CB0000084F185E02D099408950C94FD0781E0CE
:102CC00008950E94BB220E944B060E9431230E945D
:102CD00063270C940213CF92DF92EF92FF920F932F
:102CE0001F93CF93DF93CDB7DEB72B970FB6F89432
:102CF000DEBF0FBECDBF0E947F070E945F1681110D
:102D000011C08FEF89838A831B820E94C422816055
:102D1000782F9D838C8349815A816B818D810E949C
:102D2000131756C032E9E32E31E0F32E00E010E035
:102D3000C02E802F0E94CD07F701D1907F01D826A9
:102D400031F40F5F1F4F0A30110591F7DACF9091E0
:102D5000E90191FF04C08B870E94D3078B8520E097
:102D600030E04D2D50E0922FBA01022E02C0759531
:102D700067950A94E2F760FF25C02E83CF82EE2488
:102D8000E394F12C02C0EE0CFF1C9A95E2F790E060
:102D90008E219F2121E0892B09F420E028870E94C1
:102DA000C4228160782F9A8789874E815F816885E8
:102DB0008A850E941317F801EE56FE4F80818E25FA
:102DC000808306C02F5F3F4F2630310561F6B9CFB3
:102DD0000E94C324109191010E940F161817A1F0B0
:102DE0000E940F16809391012B960FB6F894DEBFC8
:102DF0000FBECDBFDF91CF911F910F91FF90EF904C
:102E0000DF90CF900C94350D2B960FB6F894DEBF63
:102E10000FBECDBFDF91CF911F910F91FF90EF902B
:102E2000DF90CF900895CF93DF93CDB7DEB72B9788
:102E30000FB6F894DEBF0FBECDBF4F8358876987AA
:102E40007A878B87DE01119686E0FD0111928A95C3
:102E5000E9F785E0FE01379601900D928A95E1F73A
:102E600049815A816B817C818D819E810E94981E4F
:102E70002B960FB6F894DEBF0FBECDBFDF91CF917A
:102E80000895FC01808191810E94FC200895CF93D8
:102E9000DF931F92CDB7DEB7682F882309F402C1F4
:102EA0008238C1F40E940F1681FDFCC069E3809155
:102EB0000301909104010E9437220E943C212FEFD0
:102EC00081EE94E0215080409040E1F700C0000086
:102ED00069E319C0833811F50E940F1680FDE2C026
:102EE00063E580910301909104010E9437220E94C2
:102EF0003C21EFEFF1EE24E0E150F0402040E1F71B
:102F000000C0000063E580910301909104010E94DC
:102F100039220F90DF91CF910C943C218438C1F479
:102F20000E940F1682FDBEC067E48091030190915C
:102F300004010E9437220E943C218FEF91EEE4E0D1
:102F400081509040E040E1F700C0000067E4DBCF33
:102F50008CEF860F813A70F4862F69830E94CF260A
:102F6000698181119FC080910301909104010E94A9
:102F70003722CFCF80E2860F883048F4677081E037
:102F800001C0880F6A95EAF70E947221C2CF8BE5D3
:102F9000860F833088F4653A29F0663A31F482E886
:102FA00090E005C081E890E002C083E890E00F90D7
:102FB000DF91CF910C94311688E5860F853108F0AA
:102FC00071C0683A61F1693A69F16A3A71F16B3A34
:102FD00079F16C3A81F16B3B89F16C3B91F16D3A7F
:102FE00099F1603BA1F16E3AA9F16F3AB1F1613B01
:102FF000B9F1623BC1F1633BC9F1643BD1F1653B7F
:10300000D9F1663BE1F1673BE9F1683BF1F1693BDE
:10301000F9F16A3B09F03FC08AE292E03EC082EEDD
:1030200090E03BC089EE90E038C08AEE90E035C079
:1030300085EB90E032C086EB90E02FC083EB90E010
:103040002CC084EB90E029C087EB90E026C08CEC8C
:1030500090E023C08DEC90E020C083E891E01DC09B
:103060008AE891E01AC082E991E017C084E991E012
:1030700014C081E292E011C083E292E00EC084E2CB
:1030800092E00BC085E292E008C086E292E005C0C3
:1030900087E292E002C080E090E00F90DF91CF9154
:1030A0000C9447160F90DF91CF910895882309F46F
:1030B0005DC0823879F40E940F1681FF57C069E322
:1030C00080910301909104010E9437220E943C21CB
:1030D00069E310C08338B1F40E940F1680FF46C028
:1030E00063E580910301909104010E9437220E94C0
:1030F0003C2163E580910301909104010E943922F3
:103100000C943C21843879F40E940F1682FF2EC063
:1031100067E480910301909104010E9437220E948C
:103120003C2167E4E7CF9CEF980F913A10F4682FA9
:10313000E1CF90E2980F983050F4877091E001C091
:10314000990F8A95EAF7892F0E947821D9CF9BE5BC
:10315000980F933020F480E090E00C943116885A58
:10316000853120F480E090E00C9447160895882380
:1031700021F00E9472210C943C210895882321F0B3
:103180000E9478210C943C2108958F929F92BF92C7
:10319000CF92DF92EF92FF920F931F93CF93DF9323
:1031A00000D0CDB7DEB74C01472FFC01C580C294DB
:1031B0009FE0C922D280DD2031F079836A830E94AA
:1031C0008F216A81498149836A830E94352149811F
:1031D0006A81882389F0DD2079F080E2860F8830CB
:1031E00058F082E00E941E210E943521BB24B39436
:1031F000B82649816A8101C0B12CE42EE2948FE0A7
:10320000E822F12CF701E859FF4F0C948632842F05
:10321000807F142F1F70882311F01295107FDD20FE
:10322000C1F0112309F4E1C180E2860F883010F06B
:10323000611105C0812F6A830E94722104C0812F11
:103240006A830E9482216A816A830E943C216A818A
:10325000CCC1862F6A830E9456186A81112309F413
:103260000BC280E2860F883010F0611104C0812FFC
:103270000E94782103C0812F0E9488210E943C2156
:10328000FBC1842F807F142F1F70803211F01295A4
:10329000107F662319F06130D9F026C0DD2079F067
:1032A000CC2049F0F1E0CF1206C00E94A821812B6A
:1032B0000E94A221E1C10E94A821812B4AC1CC20F9
:1032C00021F021E0C21609F4D7C10E94A52146C110
:1032D000DD2029F085E08C1508F4CEC139C194E0D9
:1032E0009C1508F4C9C13AC1DD2051F0CC2009F485
:1032F0002FC1F401858180FF78C18F70858328C13B
:10330000CC2009F42BC182C1242F26952695237049
:1033100030E02115310521F02130310561F0ACC1DB
:10332000DD2021F0862F942F937002C080E090E082
:103330000E943116B1C1DD2021F0862F942F9370A9
:1033400002C080E090E00E944716A6C1DD20F9F09F
:10335000653F51F0663F71F0643FA9F480912A0205
:1033600090912B0281600BC080912A0290912B02D8
:10337000826005C080912A0290912B028460909314
:103380002B0280932A02862F0E94CB2322C0653F06
:1033900051F0663F91F0643FC9F480912A02909108
:1033A0002B028E7F05C080912A0290912B028D7F87
:1033B00090932B0280932A0209C020912A02309117
:1033C0002B022B7F30932B0220932A02862F0E9400
:1033D00033240E94B82460C1842F837009F04EC04A
:1033E000D11056C1262F229526952770220F220F25
:1033F000862F8F70C82ED12CE12CF12C022E04C008
:10340000CC0CDD1CEE1CFF1C0A94D2F764FF10C02C
:103410006FE070E080E090E004C0660F771F881FC7
:10342000991F2A95D2F7609570958095909503C065
:1034300060E070E0CB01242F26952695237030E0C4
:103440002230310569F02330310589F06C297D295E
:103450008E299F292130310571F00E94E91F18C182
:103460006C297D298E299F290E94FB1F11C10E9472
:10347000E91FC701B6010E94D71F0AC1DD2019F05C
:10348000842F817001C08695882309F401C1262FFD
:10349000229526952770220F220F862F8F70C82E17
:1034A000D12CE12CF12C022E04C0CC0CDD1CEE1C26
:1034B000FF1C0A94D2F764FF10C06FE070E080E058
:1034C00090E004C0660F771F881F991F2A95D2F7D6
:1034D000609570958095909503C060E070E0CB0199
:1034E000242F26952695237030E02230310569F08F
:1034F0002330310589F06C297D298E299F292130BF
:10350000310571F00E949720C3C06C297D298E2956
:103510009F290E94A920BCC00E949720C701B60124
:103520000E948520B5C0062F10E0F801E05EF10989
:10353000E531F10508F055C0E858FF4F0C9486328C
:10354000162F1F70842F8F71DD2031F00E943020E4
:10355000812F0E94B71890C00E944B20812F0E949B
:10356000BE188AC0DD2049F0F4E0FC1508F484C0E0
:10357000842F8F710E946A207FC025E02C1508F4EB
:103580007BC0F6CFDD2039F0842F8F710E94302070
:1035900073C0DD20C9F3842F8F710E944B206CC053
:1035A000DD2029F0842F8F710E94212065C00E94A8
:1035B0001C2062C0DD2051F0142F1F71812F0E944A
:1035C000302063E0812F0E94152156C081E00E94C7
:1035D0001E2181E08C1508F04FC082E00E941E2160
:1035E0004BC0DD2031F0CC2079F2862F0E944717A6
:1035F00043C0CC2081F2693349F49FEFE7EEF3E05A
:103600009150E040F040E1F700C00000862F0E949A
:10361000561832C04F70C4010E94370D0E94451FDA
:103620003BC0D11039C0942F9F70892F90E0823019
:10363000910599F03CF4009769F00197E9F40E9434
:103640009C272AC08430910571F054F00597A1F4AD
:1036500080E00AC00E9480271FC00E94B8271CC0BB
:103660000E94D22719C085E00E94F72715C04F702D
:10367000C4010E943A0D10C028E0E216F10441F0A6
:103680005CF09AE0E91AF108E2E0EE16F10420F4A9
:103690000E940F160E94350DBB20F1F00E941121EF
:1036A00080FD1AC0F40112820E940B210E9430207A
:1036B000C4010E947A1B0E940B210F900F90DF9192
:1036C000CF911F910F91FF90EF90DF90CF90BF901F
:1036D0009F908F900C944B200F900F90DF91CF9183
:1036E0001F910F91FF90EF90DF90CF90BF909F9030
:1036F0008F9008950F931F93CF93DF93EC01288150
:1037000039818B819C81892B31F03F3F11F080E022
:1037100003C02F3FE1F781E0811113C0CE010E9469
:10372000A409882371F0688179818A810E94072128
:103730008C010E94BB200E94D41FB801CE010E94C0
:10374000C518DF91CF911F910F9108950E948F218D
:103750000E949F2180910301909104010E943B22CD
:103760000E943C210E944C250E94B82480E090E0F9
:103770000E94311680E090E00C9447160E947F2151
:103780000C94A61B0E94FC20E92FE295EF70F0E05C
:103790003297EE30F105B8F4E357FF4F0C948632C0
:1037A000803F59F018F4803E70F407C0843F59F40C
:1037B00004C0803E10F0813F31F481E0089593FB16
:1037C000882780F9089580E00895CF93DF9300D093
:1037D00000D01F92CDB7DEB70F900F900F900F90D3
:1037E0000F90DF91CF910895CF93DF9300D000D059
:1037F00000D0CDB7DEB726960FB6F894DEBF0FBE69
:10380000CDBFDF91CF9108951F93CF93DF93C091E8
:103810009C0116E080919D01C81799F0D0E01C9F93
:10382000F0011D9FF00D1124E256FE4F40815181A1
:1038300062817381848195810E94F41B2196C770F7
:10384000E9CFDF91CF911F9108954091CE01509122
:10385000CF016091D0017091D1018091D2019091FE
:10386000D3010C94F41BCF938091D30182958F7078
:1038700009F05FC08091D001882309F45AC02091DB
:103880009C01A0919D016091CE017091CF0180912A
:10389000D1019091D20131E06F3F09F030E0B32FB8
:1038A000C6E02A1709F445C0009721F07F3F21F4B4
:1038B0004B2F03C041E001C040E030E040FD35C087
:1038C000C29FF001C39FF00D1124E256FE4F4181CB
:1038D00074132BC04081641328C04281411125C05C
:1038E000438154814817590710F441505109481B2E
:1038F000590B483C5105C8F48091D3018F70806109
:103900008093D30186E0829FF001839FF00D112404
:10391000ED55FE4F80818F70806180838EEC91E049
:103920000E947A1BCF910C94041C2F5F3F4F27708D
:10393000B8CFCF910895CF92DF92EF92FF920F937D
:103940001F93CF93DF93CDB7DEB762970FB6F8948E
:10395000DEBF0FBECDBF8C0185E0F801DE011D96F4
:1039600001900D928A95E1F7D8014C9111965C91E6
:10397000119712966C9112971396ED90FC901497F4
:103980007091CE01E091CF012091D1013091D2010F
:103990002115310531F0EF3F31F481E07F3F19F41B
:1039A00003C081E001C080E0B82FB170CB2E80FD54
:1039B0006BC1D090D001DD2009F4F5C0F091D301A6
:1039C000E216F30638F0C701821B930B883C910581
:1039D00048F09DC0209530952E0D3F1D283C3105A7
:1039E00008F095C08F2F807F09F052C0E51314C0F6
:1039F000741312C0D62E61110FC0FF70F061F093E6
:103A0000D3010E94251C8EEC91E00E947A1B8091CC
:103A1000D301F80185837CC1EF2831F05F3F31F499
:103A200081E04F3F19F403C081E001C080E080FDD8
:103A300003C081E0862701C080E0F82FF170FF2EDF
:103A400080FF1CC080919C0120919D0136E082176F
:103A500009F438C190E0389FF001399FF00D11242E
:103A6000E256FE4F7181571306C07081471303C0A1
:103A70007281671303C001968770E9CFD62E662343
:103A800009F446C18091D30181608093D30155C070
:103A9000E51308C0741306C0611104C0D80115965F
:103AA000FC93AEC04D875E878D859E856A8B0E9494
:103AB000C21B6A89882329F1D62E662311F1209131
:103AC000D301822F82958F7090E002970CF462C030
:103AD0008091CE019091CF0198878F831986FB86C4
:103AE000EA862C87CE01079653C0E51741F14D8732
:103AF0005E878D859E856A8B0E94C21B6A898111B3
:103B000030C0C8010E947A1BDD24D39401C18F2FDD
:103B1000807F59F77E2DF98AE88A89890E94E51B02
:103B20008EEC91E00E947A1BEEECF1E086E0DF0182
:103B30001D928A95E9F70E94251CD12CE9C07413C7
:103B4000D6CF6111D4CFD8011596FC93C8010E943D
:103B50007A1BEEECF1E086E0DF011D928A95E9F731
:103B6000D7C0D62E662369F22091D301822F829589
:103B70008F7090E0029774F08091CE019091CF0108
:103B80009A8389831B82FD82EC822E83CE0101966B
:103B90000E947A1B86E0F801AEECB1E001900D9234
:103BA0008A95E1F78AC0E216F30628F0C701821B66
:103BB000930B9C0104C0209530952E0D3F1D283C91
:103BC000310508F053C0D62E662309F49ACFE513C9
:103BD0002CC074132AC08091D30180FD1DC0982F82
:103BE00092959F70C9F0D80115968C9315979F30C8
:103BF00039F09F5F9295907F8F70892B15968C93EB
:103C0000C8010E947A1B86E0F801AEECB1E0019099
:103C10000D928A95E1F753C086E0F801AEECB1E071
:103C200001900D928A95E1F773C04D875E878D856F
:103C30009E850E94C21B882381F096E0F801AEECBD
:103C4000B1E001900D929A95E1F78A8B0E94331CA6
:103C50000E94251C8A89D82E5BC08091D301816087
:103C60008093D301C8010E947A1B52C07E2DF98A2D
:103C7000E88A89890E94E51BEEECF1E086E0DF012D
:103C80001D928A95E9F71BC0662309F43ACF4D8748
:103C90005E878D859E850E94C21BD82E882309F4DD
:103CA00030CF86E0F801AEECB1E001900D928A953C
:103CB000E1F78EEC91E00E9441170E94331C0E94B4
:103CC000251C26C04D875E878D859E850E94FC2021
:103CD000292F22952F7030E0223031052CF49F706F
:103CE00041F0811106C00CC0243031052CF49F70C6
:103CF00049F4805E883020F0C8010E947A1BCF2CE6
:103D0000DC2C06C0D80115969C91907F91F7F8CFD6
:103D10008D2D62960FB6F894DEBF0FBECDBFDF913A
:103D2000CF911F910F91FF90EF90DF90CF9008956A
:103D30001F93CF93DF93CDB7DEB72C970FB6F894D0
:103D4000DEBF0FBECDBF4F83588769877A878B87C9
:103D50009C87CE0107960E949B1C8823C1F02F816F
:103D600038858A859B85892B31F03F3F11F080E0B3
:103D700003C02F3FE1F781E0811147C04F81588593
:103D800069857A858B859C850E94F41B3EC086E000
:103D9000FE013796DE01119601900D928A95E1F7AA
:103DA000FF81E8854A855B854115510531F0EF3F7C
:103DB00031F481E0FF3F19F403C081E001C080E0ED
:103DC00080FD23C020919D0130E0C90101968770DC
:103DD000992760919C0170E086179707F1F1F983AC
:103DE000EA835D834C8396E0929FD001939FB00D50
:103DF0001124A256BE4FFE01319601900D929A9564
:103E0000E1F780939D010E94041C16E080919C01C3
:103E100090919D01891779F1189FC0011124825654
:103E20009E4F0E949B1C882331F1E0919C011E9FB4
:103E3000F0011124E256FE4F40815181628173816D
:103E4000848195810E94F41B80919C0190E00196F1
:103E50008770992780939C01D9CF0E94BE1B109236
:103E60009D0110929C01EEECF1E086E0DF011D92D5
:103E70008A95E9F7CACF2C960FB6F894DEBF0FBE2D
:103E8000CDBFDF91CF911F910895EF92FF920F93D5
:103E90001F93CF93DF939C01009709F471C0F12C1D
:103EA000EE24E394E9012196F9018491843740F4EA
:103EB000843008F056C0813081F0823021F160C03A
:103EC000853709F449C0C0F19CE7980F903708F096
:103ED00057C08F770E94561846C089010E5F1F4F4A
:103EE000FE01849190E2980F983050F48770FE2D77
:103EF00001C0FF0F8A95EAF78F2F0E94922115C00B
:103F00000E94471714C089010E5F1F4FFE01849164
:103F100090E2980F983068F48770FE2D01C0FF0F73
:103F20008A95EAF78F2F0E9498210E943C21E80190
:103F30001AC00E945618FBCF2E5F3F4FFE01C4915E
:103F4000CC2341F08FE99FE00197F1F700C000001A
:103F5000C150F6CFE90107C0FE01F490E9012296B5
:103F600002C00E9447178F2D882341F0EFE9FFE040
:103F70003197F1F700C000008150F6CF9E0192CF3B
:103F8000DF91CF911F910F91FF90EF9008950895C9
:103F90000E94C71F6093D8017093D9018093DA0102
:103FA0009093DB010C94A61B08950C94C81F0F93EB
:103FB0001F930091D8011091D9012091DA0130911D
:103FC000DB01602B712B822B932B1F910F910C9493
:103FD000C81F0F931F930091D8011091D901209110
:103FE000DA013091DB0160237123822393231F9137
:103FF0000F910C94C81F0F931F930091D80110913B
:10400000D9012091DA013091DB01602771278227E5
:1040100093271F910F910C94C81F08950C940D20A5
:104020000E940E206093D4017093D5018093D60135
:104030009093D7010C94A61B60E070E0CB010C9428
:10404000102041E050E060E070E004C0440F551FD4
:10405000661F771F8A95D2F7CB01BA010C94102006
:1040600041E050E060E070E004C0440F551F661F5F
:10407000771F8A95D2F78091D4019091D501A091B4
:10408000D601B091D701482B592B6A2B7B2BCB0142
:10409000BA010C94102041E050E060E070E004C0F0
:1040A000440F551F661F771F8A95D2F7409550958C
:1040B000609570958091D4019091D501A091D60121
:1040C000B091D701482359236A237B23CB01BA013E
:1040D0000C94102041E050E060E070E004C0440F18
:1040E000551F661F771F8A95D2F78091D401909152
:1040F000D501A091D601B091D701482759276A2749
:104100007B27CB01BA010C9410200F931F930091D1
:10411000D4011091D5012091D6013091D701602BA7
:10412000712B822B932B1F910F910C9410200F93C6
:104130001F930091D4011091D5012091D6013091A7
:10414000D70160237123822393231F910F910C9435
:1041500010200F931F930091D4011091D50120914D
:10416000D6013091D70160277127822793271F91AD
:104170000F910C9410200895CF92DF92EF92FF924E
:104180000F931F93CF93DF93EC01C090D801D09091
:10419000D901E090DA01F090DB018091D401909197
:1041A000D501A091D601B091D701C82AD92AEA2A0F
:1041B000FB2A0FE110E0B701A601002E04C076959E
:1041C0006795579547950A94D2F740FD05C0015071
:1041D000110988F780E007C0BE01802F0E94550DAD
:1041E0000197A9F3802FDF91CF911F910F91FF903D
:1041F000EF90DF90CF900895CF93DF93EC010E9472
:10420000BC20BE010E94550DDF91CF910895CB01D6
:104210000E94FC2008958091DC0185958595859507
:1042200008958091DC018770089598E0899F90013E
:104230001124622B6093DC010C9430204091DC014E
:10424000809584238093DC01982F977069F450E067
:10425000282F332727FD30954217530729F08595DE
:10426000859585950C944B2008959091DC0197706D
:1042700081E009F480E00895E0910301F0910401E8
:104280008091E8018083E0910301F0910401808135
:104290009091E701892B8083E0910301F091040163
:1042A00080819091E601892B80839091DD01992393
:1042B00081F0E0910301F09104018081892B8083DA
:1042C00080910301909104010E94FB2181111092C1
:1042D000DD0180910301909104010C941B168091E3
:1042E000E80108959091E801982B9093E8010895D2
:1042F00080959091E80198239093E8010895109299
:10430000E80108959091E701982B9093E7010895B3
:1043100080959091E70198239093E701089510927A
:10432000E70108959091E601982B9093E601089596
:1043300080959091E60198239093E601089510925C
:10434000E60108958093DD0108951092DD0108953E
:104350008091DD0108956DEE7EEF80E090E00E9497
:10436000C93260E082E090E00E94AB3260E083E01E
:1043700090E00E94AB3260E084E090E00E94AB32BB
:1043800060E085E090E00E94AB3260E086E090E083
:104390000E94AB3240E050E0BA0188E090E00C941B
:1043A000BD3280E090E00E94A53221E08D3E9E4F1C
:1043B00009F020E0822F089582E090E00C9497327B
:1043C00083E090E00C949732682F83E090E00C94A7
:1043D000AB3284E090E00C949732682F84E090E058
:1043E0000C94AB3286E090E00C949732682F86E014
:1043F00090E00C94AB3220E030E040E0FC01E20FB2
:10440000F31F518151114F5F2F5F3F4F273031050F
:10441000A9F7842F089520E030E04FEFFC01E20F70
:10442000F31F5281561799F04F3F19F4511101C0F3
:10443000422F2F5F3F4F2630310581F74F3F39F034
:10444000FC01E40FF11D47FDFA956283089508957C
:1044500020E030E0FC01E20FF31F4281461301C06F
:1044600012822F5F3F4F26303105A1F708950C943B
:104470000B220C94282220E030E0FC01E20FF31F15
:1044800011822F5F3F4F27303105B9F70895809192
:104490003702843039F11092EA0120E488E190E09B
:1044A0000FB6F894A895809360000FBE209360002B
:1044B00080E00E94C40C80E00E94350D83B7817FAC
:1044C000846083BF83B7816083BF7894889583B706
:1044D0008E7F83BF88E10FB6F894809360001092BE
:1044E00060000FBE089508950895CF930E9473222F
:1044F0000E947F070E947422C0E08C2F0E94CD078B
:10450000811105C0CF5FCA30C1F780E001C081E0F2
:10451000CF9108950E94BE1B0E9463270E940F1630
:104520000C94350D1F920F920FB60F9211248F939A
:104530009F93AF93BF938091EA01811113C0809143
:104540002C0290912D02A0912E02B0912F02419643
:10455000A11DB11D80932C0290932D02A0932E02D9
:10456000B0932F02BF91AF919F918F910F900FBE8B
:104570000F901F90189582E084BD93E095BD9AEF4F
:1045800097BD80936E0008952FB7F89480912C0208
:1045900090912D02A0912E02B0912F022FBF08956D
:1045A000CF92DF92EF92FF920F931F932FB7F89461
:1045B00040912C0250912D0260912E0270912F0299
:1045C0002FBF6A017B01EE24FF248C0120E030E044
:1045D000C016D106E206F30610F441505109481BFB
:1045E000590BCA011F910F91FF90EF90DF90CF9070
:1045F000089578941F920F920FB60F9211248F9303
:104600009F93AF93BF9380912C0290912D02A09124
:104610002E02B0912F020196A11DB11D80932C0294
:1046200090932D02A0932E02B0932F02BF91AF91D1
:104630009F918F910F900FBE0F901F90189587E755
:1046400097E790930108809300082AE088E190E0C2
:104650000FB6F894A895809360000FBE2093600079
:10466000FFCF0E94D121811102C00E94AB210E9484
:10467000DC218093E9010E94E92190E090933102CE
:10468000809330020E94E021682F70E080E090E08B
:104690000C94D51F8091ED0180FF0BC06091080143
:1046A00085E0689FB00111247595679575956795AC
:1046B0002AC081FF09C06091080185E0689FB001B0
:1046C0001124759567951FC082FF07C0609108018E
:1046D00085E0689FB001112416C04091EE0144238B
:1046E000C9F060910701461788F72091080185E01D
:1046F000289F90011124429FC001439F900D1124D7
:1047000070E00E9450326038710540F46115710507
:1047100039F002C065E070E0862F08958FE70895B4
:1047200081E008958091ED0180FF08C0609106014D
:1047300070E0759567957595679521C081FF06C0F6
:104740006091060170E07595679519C082FF04C0FD
:104750006091060170E010C08091EE018823C1F0E5
:10476000609105018617A0F790910601989FC001FE
:10477000112470E00E9450326038710528F46115F0
:10478000710521F0862F08958FE7089581E008953F
:1047900061E070E0F4CF803F21F40E944A238195CC
:1047A00004C0813F29F40E944A238093F1010895B7
:1047B000823F21F40E944A23819504C0833F29F45B
:1047C0000E944A238093F0010895893F19F40E94C2
:1047D000922305C08A3F31F40E94922381958093F1
:1047E000F20108958B3F21F40E949223819504C029
:1047F0008C3F29F40E9492238093F3010895843F13
:1048000021F48091EF01816017C0853F21F48091F0
:10481000EF01826011C0863F21F48091EF01846036
:104820000BC0873F21F48091EF01886005C0883F6D
:1048300031F48091EF0180618093EF0108958D3F05
:1048400021F48091ED0181600BC08E3F21F48091B5
:10485000ED01826005C08F3F29F48091ED018460F5
:104860008093ED010895803F39F48091F10187FF35
:104870006CC01092F10169C0813F29F48091F1016F
:104880001816BCF362C09091F001823F29F497FFA3
:104890005CC01092F00159C0833F19F41916CCF393
:1048A00054C0893F41F48091F20118160CF04DC0BC
:1048B0001092F2014AC08A3F29F48091F20187FFE9
:1048C00044C0F6CF8B3F39F48091F30187FF3DC0A0
:1048D0001092F3013AC08C3F29F48091F30118162D
:1048E000BCF333C0843F21F48091EF018E7F17C069
:1048F000853F21F48091EF018D7F11C0863F21F427
:104900008091EF018B7F0BC0873F21F48091EF01F5
:10491000877F05C0883F31F48091EF018F7E8093BF
:10492000EF0113C08D3F21F48091ED018E7F0BC00C
:104930008E3F21F48091ED018D7F05C08F3F29F4DA
:104940008091ED018B7F8093ED018091F0018111C9
:104950000EC08091F10181110AC08091F201811194
:1049600006C08091F301811102C01092EE010895FA
:104970008FEE91E00E9426160E94C4229093EC01D3
:104980008093EB0108951F93CF93DF938091EB0108
:104990009091EC010E94D0224091EE01442321F03D
:1049A0002091090130E006C020910A015AE0259FBC
:1049B000900111248217930708F46AC08091F001D6
:1049C0001091F101D091F201C091F301811107C062
:1049D000111105C0D11103C0CC2309F459C04F3FB8
:1049E00019F04F5F4093EE01181624F40E944A23F9
:1049F0008093F0018091F00187FF05C00E944A2357
:104A000081958093F001111624F40E944A2380932B
:104A1000F1018091F10187FF05C00E944A23819531
:104A20008093F1012091F001222379F04091F1016E
:104A3000442359F055EB2503900111243093F001E4
:104A40004503C00111249093F1011D1624F40E9426
:104A500092238093F2018091F20187FF05C00E94AA
:104A6000922381958093F2011C1624F40E949223D4
:104A70008093F3018091F30187FF05C00E94922388
:104A800081958093F301DF91CF911F910C94B8240D
:104A9000DF91CF911F910895EFEEF1E085E0DF0106
:104AA0001D928A95E9F71092EE011092ED0108959A
:104AB000833081F128F4813059F08230D1F00895AB
:104AC000853009F449C0B8F1863009F456C008951C
:104AD00020910A01862F90E0820F911D8F3F910552
:104AE00020F4620F60930A0108958FEF80930A010A
:104AF000089520910901862F90E0820F911D8F3F2C
:104B0000910520F4620F6093090108958FEF80935F
:104B10000901089520910801862F90E0820F911DD0
:104B20008F3F910520F4620F6093080108958FEF85
:104B300080930801089520910701862F90E0820F4D
:104B4000911D8F3F910520F4620F60930701089536
:104B50008FEF80930701089520910601862F90E042
:104B6000820F911D8F3F910520F4620F6093060123
:104B700008958FEF80930601089520910501862FF7
:104B800090E0820F911D8F3F910520F4620F60939A
:104B9000050108958FEF809305010895833011F189
:104BA00028F4813049F0823091F00895853081F108
:104BB00020F18630C1F1089580910A01681720F430
:104BC000861B80930A01089510920A01089580912E
:104BD0000901681720F4861B80930901089510923B
:104BE0000901089580910801681720F4861B8093BD
:104BF000080108951092080108958091070168172F
:104C000020F4861B809307010895109207010895F0
:104C100080910601681720F4861B80930601089591
:104C200010920601089580910501681720F4861BF3
:104C30008093050108951092050108958732F8F4D4
:104C40008E3108F085C08E3009F465C048F4873095
:104C500009F447C08B3009F491C0863051F127C068
:104C6000863109F48BC020F4803109F45EC01FC086
:104C7000893109F483C08B3109F443C018C08833EB
:104C800009F47CC050F4893209F470C0853309F40A
:104C90006DC0873209F46AC00AC0833409F466C063
:104CA00020F48A3308F052C002C0883461F080E0FA
:104CB00008958091E901817F8E7F8093E90181E0F1
:104CC0008093F50108950E94BE1B2FEF83ED90E3C2
:104CD000215080409040E1F700C000000E941F2357
:104CE0004DC09091E901892F8095817080FB90F9EA
:104CF0009093E901811142C0997F977F9093E901D8
:104D00003DC09091E90191FB882780F921E082273D
:104D100080FB91F913C09091E90192FB882780F9FB
:104D200021E0822780FB92F909C09091E90193FB71
:104D3000882780F921E0822780FB93F99093E9018D
:104D40008823E1F091609093E901089527EC01C078
:104D500023EE280F61E070E080E090E004C0660F71
:104D6000771F881F991F2A95D2F704C061E070E071
:104D700080E090E00E94D51F0E94BE1B81E0089554
:104D800080E0089580E008958E518A3030F4E82F55
:104D9000F0E0EA5DFE4F8081089580E00895CF93B2
:104DA000C82F8091F501813069F018F08230B1F19F
:104DB00080C0E0910301F09104018081823209F00A
:104DC0007AC007C0E0910301F09104018081823232
:104DD00049F48C2F0E94C02681111DC08C2F0E9487
:104DE0001E261AC08C2F0E94C226811114C0C43105
:104DF00079F048F4CB3079F0C03109F060C082E03E
:104E00008093F50108C0C93219F0C83321F057C0AA
:104E10001092F50154C081E0817053C0C93289F10C
:104E200018F5C43171F1B0F4C73009F046C08EE115
:104E300080930A0182E3809309018AE0809308014C
:104E400084E18093070188E08093060188E28093E3
:104E5000050133C082EE8C0F863078F58C2F0E94CE
:104E6000C4268093F40129C0CE34E9F020F4CB3479
:104E700021F56AE013C0C13579F0C235F1F461E083
:104E80000DC08091F401882319F01092F40115C02F
:104E900081E08093F50115C061E006C08091F401C6
:104EA0000E9458250AC06AE08091F4010E94CE2534
:104EB00004C01092F50180E004C081E002C080E0EF
:104EC000ABCFCF9108950E94D121811102C00E94E1
:104ED000AB210E94F22180933202282F269530E0E8
:104EE0002630310524F081708A60809332028091EF
:104EF000320280FF02C0869501C080E00C94C40C91
:104F000020913202322F3695832F90E0059744F49A
:104F100091E0930F990F822F8170892B8093320239
:104F2000809132028160809332020E94F62180914A
:104F3000320286950C94C40C80913202982F96957B
:104F400091F09158990F8170892B809332028E7F56
:104F500091E009F490E08091320290FB80F9809317
:104F600032020E94F6218091320286950C94C40C84
:104F700080913202982F909590FB80F980933202B5
:104F8000813019F483E080933202809132020E94D2
:104F9000F6218091320280FF02C0869501C080E038
:104FA0000C94C40C30913202232F26952F5F2F775B
:104FB000822F90E0317006972CF4220F232B209340
:104FC000320202C030933202809132028E7F91E031
:104FD00009F490E08091320290FB80F980933202D4
:104FE0000E94F6218091320286950C94C40C863082
:104FF00008F085E0880F909132029170982B909381
:1050000032029E7F21E009F420E08091320220FBF1
:1050100080F9809332020E94F621809132028695B7
:105020000C94C40C8091FE0108950F931F93CF93AD
:10503000DF9300D01F92CDB7DEB78C010E94632AA8
:10504000823011F0843019F583E089831B830A8351
:105050008093E9008FEF9091E800815095FD06C0A4
:1050600095ED9A95F1F700008111F5CF8091E80058
:1050700085FF0DC040E050E063E070E0CE01019696
:105080000E94802A8091E8008E778093E8000F903C
:105090000F900F90DF91CF911F910F910895CF93B3
:1050A000DF9300D01F92CDB7DEB7209137022430B6
:1050B00031F522E02983805891099B838A8383E01C
:1050C0008093E9008FEF9091E800815095FD06C034
:1050D00095ED9A95F1F700008111F5CF8091E800E8
:1050E00085FF0DC040E050E063E070E0CE01019626
:1050F0000E94802A8091E8008E778093E8000F90CC
:105100000F900F90DF91CF910895CF93DF93EC0133
:105110000E94632A823011F08430F9F482E0809397
:10512000E9008FEF9091E800815095FD06C095ED64
:105130009A95F1F700008111F5CF8091E80085FF85
:105140000CC040E050E065E070E0CE010E94802A93
:105150008091E8008E778093E800DF91CF910895E9
:10516000CF93DF93EC010E94632A823011F08430E8
:1051700039F581E08093E9008FEF9091E80081504C
:1051800095FD06C095ED9A95F1F700008111F5CFD8
:105190008091E80085FF14C040E050E068E070E0D6
:1051A000CE010E94802A8091E8008E778093E800EB
:1051B00088E0FE01A6EFB1E001900D928A95E1F73B
:1051C000DF91CF91089580913602811109C00E942C
:1051D000122C0E946F2C8091E20084608093E20088
:1051E0000895109236020895089508950C948A2225
:1051F00042E061EC81E00E948C2B42E061EC82E0B5
:105200000E948C2B42E061EC83E00C948C2B80910B
:105210003902833009F453C030F4813071F08230A8
:1052200009F48CC008958A3009F478C08B3009F4F1
:105230005EC0893009F09AC020C080913802813A5E
:1052400009F094C08091E800877F8093E800809106
:105250003C0290913D02892B21F060E080E090E0DB
:1052600003C068E086EF91E070E00E94C92A809157
:10527000E8008B778093E8000895809138028132AE
:1052800009F074C080913C0290913D02892B09F095
:105290006DC08091E800877F8093E8008091E800EE
:1052A00082FD05C0809137028111F8CF5FC08091E7
:1052B000F1008093FE018091E8008B7753C08091CC
:1052C0003802813A09F052C080913C0290913D022F
:1052D000892B09F04BC08091E800877F8093E8001C
:1052E0008091E80080FFFCCF8091150136C080914D
:1052F00038028132D9F580913C0290913D02892B90
:10530000A9F58091E800877F8093E8000E94C12B77
:1053100080913A02809315010C94BE1B8091380253
:10532000813221F58091E800877F8093E8000E9418
:10533000C12B80913B028093FF0108958091380238
:10534000813AA1F48091E800877F8093E800809102
:10535000E80080FFFCCF8091FF018093F1008091F5
:10536000E8008E778093E8000C94C12B089584B7F1
:10537000877F84BF88E10FB6F89480936000109215
:1053800060000FBE80E880936100109261000E946F
:105390005D160E94122C0E946F2C8091E2008460A6
:1053A0008093E20078940E94F22E0E9461168BE0B6
:1053B00091E00E940A1680913702853069F40E94BC
:1053C0004722809135028823B1F30E9475228823F9
:1053D00091F30E946A2AEFCF0E946B160E949D15DE
:1053E000EACF0C94F329292F332723303105A9F074
:1053F0006CF42130310509F448C02230310509F040
:1054000049C084E590E02AED3AE048C021323105F8
:10541000F9F02232310549F13DC0992781309105DB
:1054200071F02CF4892BB1F5E6EDFAE00DC0823075
:10543000910541F0039771F5E2EAFAE005C0E6EC68
:10544000FAE002C0E8EAFAE0849190E09F0126C009
:1054500063307105F8F4FB01EE0FFF1FE75CFE4FB0
:105460002081318189E090E019C06330710590F4AA
:10547000FB01EE0FFF1FED5CFE4F20813181FB0130
:10548000E05DFE4F808190E009C082E190E02EE275
:105490003BE004C080E090E020E030E0FA0131839E
:1054A000208308950895CF93C82F0E94522AC09355
:1054B0000002CF91089580913702843011F482E088
:1054C000089581E0089580910002811102C00C943A
:1054D0005B2A089580E189BD82E189BD09B400FE9F
:1054E000FDCF8091D8008F7D8093D8008091E0001F
:1054F00082608093E0008091E00081FDFCCF089500
:10550000CF92DF92EF92FF920F931F93CF93DF938F
:105510007C018B01EA010E94E22B811131C02097AE
:1055200031F088819981081B190BE80EF91EC12CF6
:10553000D12C0115110519F18091E80085FD14C0E9
:105540008091E8008E778093E800209741F0888171
:1055500099818C0D9D1D9983888385E011C00E94DF
:10556000E22B882331F30CC0F70181917F018093F6
:10557000F10001501109FFEFCF1ADF0ADACF80E006
:10558000DF91CF911F910F91FF90EF90DF90CF901F
:10559000089520913E0230913F022617370748F0C8
:1055A0006115710539F42091E8002E772093E80009
:1055B00001C0B901FC0120E061157105B9F18091CC
:1055C0003702882309F440C0853009F43FC0809138
:1055D000E80083FD3DC08091E80082FF06C0809115
:1055E000E80082FF26C080E008958091E80080FFF7
:1055F000E3CF2091F3008091F20090E0922B6115AF
:10560000710551F08830910538F421912093F10013
:10561000615071090196F3CF21E0089709F020E06D
:105620008091E8008E778093E800C6CF2111C7CF24
:10563000D6CF80913702882339F0853039F08091B8
:10564000E80083FFCCCF04C082E0089583E0089592
:1056500081E0089520913E0230913F0226173707DE
:1056600048F06115710539F42091E8002E772093F8
:10567000E80001C0B901FC0120E061157105C1F12C
:1056800080913702882309F441C0853009F440C075
:105690008091E80083FD3EC08091E80082FF06C053
:1056A0008091E80082FF27C080E008958091E800A3
:1056B00080FFE3CF2091F3008091F20090E0922BE5
:1056C0006115710559F08830910540F424912093BB
:1056D000F1003196615071090196F2CF21E00897EF
:1056E00009F020E08091E8008E778093E800C5CF34
:1056F0002111C6CFD5CF80913702882339F085306C
:1057000039F08091E80083FFCBCF04C082E0089598
:1057100083E0089581E00895982F973058F590938D
:10572000E900981739F07091EC002091ED0050914C
:10573000F00003C0242F762F50E021FF19C03091D4
:10574000EB003E7F3093EB003091ED003D7F3093D6
:10575000ED003091EB0031603093EB007093EC0082
:105760002093ED005093F0002091EE0027FF07C03A
:105770009F5FD3CF8F708093E90081E0089580E030
:1057800008958091380287FD05C08091E80080FF70
:105790000EC012C08091E80082FD05C080913702E2
:1057A0008111F8CF08958091E8008B7708C080912F
:1057B00037028111EACF08958091E8008E778093B7
:1057C000E80008958091E4009091E50045E620917D
:1057D000EC0020FF21C02091E80020FD21C0209195
:1057E0003702222389F0253089F02091EB0025FD36
:1057F0000FC02091E4003091E5002817390739F3F4
:10580000415041F0C901E3CF82E0089583E008955B
:1058100081E0089584E008952091E80022FFDFCF21
:1058200080E008950E94802C0E94882CE0EEF0E039
:10583000808181608083E8EDF0E080818F778083D4
:1058400019BCA7EDB0E08C918E7F8C9380818F7E08
:1058500080831092360208950F931F93CF93DF93A6
:105860000E94802C0E94882CC8EDD0E088818F7720
:10587000888388818068888388818F7D888319BC2C
:1058800010923702109233021092350210923402B5
:1058900000EE10E0F80180818B7F80838881816039
:1058A000888342E060E080E00E948C2BE1EEF0E033
:1058B00080818E7F8083E2EEF0E080818160808352
:1058C000808188608083F80180818E7F80838881D9
:1058D00080618883DF91CF911F910F910895E8ED4A
:1058E000F0E080818F7E8083E7EDF0E08081816051
:1058F000808384E082BF81E0809336020C942C2C5C
:10590000E8EDF0E080818E7F80831092E2000895C0
:105910001092DA001092E10008951F920F920FB6D4
:105920000F9211242F933F934F935F936F937F9325
:105930008F939F93AF93BF93EF93FF938091E10079
:1059400082FF0BC08091E20082FF07C08091E100DE
:105950008B7F8093E1000E94F12E8091DA0080FF1E
:105960001FC08091D80080FF1BC08091DA008E7F1D
:105970008093DA008091D90080FF0DC080E189BD5D
:1059800082E189BD09B400FEFDCF81E0809337023A
:105990000E94E32805C019BC109237020E94F1282A
:1059A0008091E10080FF19C08091E20080FF15C066
:1059B0008091E2008E7F8093E2008091E20080611E
:1059C0008093E2008091D80080628093D80019BC57
:1059D00085E0809337020E94F5288091E10084FFE2
:1059E00030C08091E20084FF2CC080E189BD82E15B
:1059F00089BD09B400FEFDCF8091D8008F7D8093D2
:105A0000D8008091E1008F7E8093E1008091E200D8
:105A10008F7E8093E2008091E20081608093E200BB
:105A200080913302882311F084E007C08091E30065
:105A300087FF02C083E001C081E0809337020E94AB
:105A4000F6288091E10083FF29C08091E20083FF66
:105A500025C08091E100877F8093E10082E0809300
:105A60003702109233028091E1008E7F8093E10033
:105A70008091E2008E7F8093E2008091E20080615D
:105A80008093E20042E060E080E00E948C2B8091F5
:105A9000F00088608093F0000E94F428FF91EF915D
:105AA000BF91AF919F918F917F916F915F914F9136
:105AB0003F912F910F900FBE0F901F9018951F923E
:105AC0000F920FB60F9211242F933F934F935F9332
:105AD0006F937F938F939F93AF93BF93CF93EF93E6
:105AE000FF93C091E900CF708091EC001092E90023
:105AF0008091F000877F8093F00078940E949B2D26
:105B00001092E9008091F00088608093F000C093CB
:105B1000E900FF91EF91CF91BF91AF919F918F914C
:105B20007F916F915F914F913F912F910F900FBE99
:105B30000F901F9018951F93CF93DF93CDB7DEB7CB
:105B4000AA970FB6F894DEBF0FBECDBFE8E3F2E030
:105B50008091F100819322E0E034F207C9F70E94BE
:105B600007298091E80083FF24C1209138023091F9
:105B70003902832F90E08A30910508F01AC1FC01A8
:105B8000E556FF4F0C948632203821F0223809F078
:105B900010C108C08091340290913502992389F098
:105BA00082600FC080913C028F70873008F001C185
:105BB0008093E9008091EB0085FB882780F91092A3
:105BC000E9009091E800977F9093E8008093F100BE
:105BD0001092F100CCC0822F8D7F09F0EAC0222301
:105BE00019F0223061F0E5C080913A02813009F06D
:105BF000E0C0333009F080E0809335022AC0809104
:105C00003A02811126C020913C022F708FEF820F43
:105C1000863008F0CEC02093E9008091EB0080FF31
:105C200018C08091EB00333011F4806210C08061A5
:105C30008093EB0081E090E001C0880F2A95EAF79D
:105C40008093EA001092EA008091EB0088608093D4
:105C5000EB001092E9008091E800877F8093E800D4
:105C60000E94C12BA6C02111A4C010913A021F7737
:105C70008091E3008078812B8093E3008091E8009D
:105C8000877F8093E8000E94C12B8091E80080FF0D
:105C9000FCCF8091E30080688093E300112311F032
:105CA00083E001C082E08093370283C02058223015
:105CB00008F07FC080913A0290913B028C3D23E036
:105CC000920779F583E08A838AE289834FB7F89453
:105CD000DE01139620E03EE051E2E32FF0E0509326
:105CE0005700E49120FF03C0E295EF703F5FEF7033
:105CF0008E2F90E0EA3010F0C79601C0C0968D93C9
:105D00009D932F5F243149F74FBF8091E800877F33
:105D10008093E8006AE270E0CE0101960E94C92AF1
:105D200015C060913C0270913D02AE014F5F5F4F24
:105D30000E94F1290097E9F12091E800277F209344
:105D4000E800BC0189819A810E942A2B8091E80099
:105D50008B778093E8002DC0203859F58091E800BA
:105D6000877F8093E800809133028093F1008091D7
:105D7000E8008E7773CF21111CC090913A029230C7
:105D8000C0F48091E800877F8093E800909333020D
:105D90000E94C12B80913302811104C08091E300E5
:105DA00087FF02C084E001C081E0809337020E9437
:105DB000F8288091E80083FF0AC08091E800877F7F
:105DC0008093E8008091EB0080628093EB00AA96BC
:105DD0000FB6F894DEBF0FBECDBFDF91CF911F91FC
:105DE00008950895CF93809137028823B1F0809170
:105DF000E9008F709091EC0090FF02C090E801C024
:105E000090E0C92FC82B1092E9008091E80083FD33
:105E10000E949B2DCF70C093E900CF9108955058F8
:105E2000BB27AA270ED09EC18FD130F094D120F08D
:105E300031F49F3F11F41EF45FC10EF4E095E7FBCF
:105E400055C1E92FA0D180F3BA1762077307840701
:105E5000950718F071F49EF5B8C10EF4E0950B2E7D
:105E6000BA2FA02D0B01B90190010C01CA01A001AC
:105E70001124FF27591B99F0593F50F4503E68F107
:105E80001A16F040A22F232F342F4427585FF3CF48
:105E9000469537952795A795F0405395C9F77EF419
:105EA0001F16BA0B620B730B840BBAF09150A1F062
:105EB000FF0FBB1F661F771F881FC2F70EC0BA0FE8
:105EC000621F731F841F48F4879577956795B79570
:105ED000F7959E3F08F0B3CF9395880F08F0992768
:105EE000EE0F9795879508950CD03CC134D140F0C2
:105EF0002BD130F021F45F3F19F0F8C0511166C189
:105F0000FBC041D198F39923C9F35523B1F3951BF5
:105F1000550BBB27AA2762177307840738F09F5FCA
:105F20005F4F220F331F441FAA1FA9F333D00E2E39
:105F30003AF0E0E830D091505040E695001CCAF7A6
:105F400029D0FE2F27D0660F771F881FBB1F26176B
:105F500037074807AB07B0E809F0BB0B802DBF013E
:105F6000FF2793585F4F2AF09E3F510568F0BEC04F
:105F70002DC15F3FECF3983EDCF3869577956795EE
:105F8000B795F7959F5FC9F7880F911D96958795EF
:105F900097F90895E1E0660F771F881FBB1F62170E
:105FA00073078407BA0720F0621B730B840BBA0BCC
:105FB000EE1F88F7E095089519F40EF097C005C11B
